:100000000C94C2000C94EA000C94EA000C94EA00F0
:100010000C94EA000C94EA000C94EA000C94EA00B8
:100020000C94EA000C94EA000C94EA000C94EA00A8
:100030000C94EA000C94EA000C94EA000C94EA0098
:100040000C9415050C94EA000C9485050C945F053E
:100050000C94EA000C94EA000C94EA000C94EA0078
:100060000C94EA000C94EA0007634236B79BD8A7C9
:100070001A39685618AEBAAB558C1D3CB7CC5763CD
:10008000BD6DEDFD753EF6177231BF000000803F7B
:1000900008000000BE922449123EABAAAA2ABECD97
:1000A000CCCC4C3E00000080BEABAAAAAA3E000009
:1000B0000000BF000000803F000000000008417801
:1000C000D3BB4387D1133D190E3CC3BD4282AD2B38
:1000D0003E68EC8276BED98FE1A93E4C80EFFFBE30
:1000E00001C4FF7F3F00000000004E414E494E49D1
:1000F0005459494E46CDCCCC3D0AD7233C17B7D1F5
:100100003877CC2B329595E6241FB14F0A0000209A
:10011000410000C84200401C4620BCBE4CCA1B0E19
:100120005AAEC59D7400000000240027002A00007C
:10013000000000250028002B0000000000230026FE
:10014000002900040404040404040402020202025C
:10015000020303030303030102040810204080018B
:10016000020408102001020408102000000008000A
:10017000020100000304070000000000000000006E
:10018000B705EF0911241FBECFEFD8E0DEBFCDBF0A
:1001900023E0A6E0B2E001C01D92AD32B207E1F764
:1001A00012E0A0E0B1E0ECEEF3E202C005900D92A7
:1001B000A630B107D9F710E0C1ECD0E004C0219718
:1001C000FE010E94F10FC03CD107C9F70E947506DD
:1001D0000C94E9110C9400008091B6029091B70242
:1001E000892B59F0E091B202F091B30281E0908145
:1001F000911180E091E08927089581E0FBCF96E09E
:10020000899FD0011124A854BD4F90967C936E9382
:100210005F9791E091969C939197E0912503F091DF
:10022000260390912403992339F0309751F08111DE
:1002300008C08091D4020994309719F05C968C9193
:10024000FACF0895CF92DF92EF92FF920F931F9310
:1002500096E0899FF0011124E854FD4F11A2278DEB
:1002600030A12130310551F178F02230310509F407
:1002700051C02330310509F452C01F910F91FF90F6
:10028000EF90DF90CF9008956623B9F361E070E0BE
:100290000E94FF002FB7F8948091110290911202F2
:1002A000A0911302B09114022FBF8093100390937A
:1002B0001103A0931203B0931303DFCF9FB7F894F9
:1002C000C0901102D0901202E0901302F09014023C
:1002D0009FBF0091100310911103209112033091E0
:1002E0001303C01AD10AE20AF30A00912203109103
:1002F000230330E020E00C151D052E053F0550F4CA
:1003000062E070E01F910F91FF90EF90DF90CF902F
:100310000C94FF006111B1CF63E070E0F3CF70E0A7
:1003200060E0F0CF833081F028F4813099F08230A2
:10033000A9F008958730A9F08830C9F08430B1F46D
:10034000809180008F7D03C0809180008F778093A3
:100350008000089584B58F7784BD089584B58F7D1E
:10036000FBCF8091B0008F778093B000089580918B
:10037000B0008F7DF9CFCF93DF93282F30E0F901C4
:10038000E559FE4F8491F901E95AFE4FD491F901E4
:10039000ED5BFE4FC491CC23A1F081110E9492012C
:1003A000EC2FF0E0EE0FFF1FE75CFE4FA591B4913C
:1003B000EC91ED2381E090E009F480E0DF91CF91B2
:1003C000089580E090E0FACF1F93CF93DF93282F1A
:1003D00030E0F901E559FE4F8491F901E95AFE4FE9
:1003E000D491F901ED5BFE4FC491CC23A9F0162FF7
:1003F00081110E949201EC2FF0E0EE0FFF1FE15DF2
:10040000FE4FA591B4918FB7F894EC91111108C0EB
:10041000D095DE23DC938FBFDF91CF911F9108959C
:10042000DE2BF8CFCF93DF9390E0FC01E95AFE4F2B
:1004300024918D5B9E4FFC0184918823C9F090E04C
:10044000880F991FFC01EB5DFE4FA591B491FC0153
:10045000E15DFE4FC591D49161110DC09FB7F89435
:100460008C91209582238C938881282328839FBF99
:10047000DF91CF910895623051F49FB7F8943C9189
:10048000822F809583238C93E8812E2BEFCF8FB71B
:10049000F894EC912E2B2C938FBFEACF862F642FEC
:1004A0000C941202862F642F0C94E401862F0C9476
:1004B000BB01AF92BF92CF92DF92EF92FF920F9368
:1004C0001F93CF93DF936C017B018B01040F151FEA
:1004D000EB015E01AE18BF08C017D10759F0699152
:1004E000D601ED91FC910190F081E02DC6010995B6
:1004F000892B79F7C501DF91CF911F910F91FF9063
:10050000EF90DF90CF90BF90AF900895FC01538D96
:10051000448D252F30E0842F90E0821B930B5417DD
:1005200010F0CF96089501970895FC01918D828D6A
:10053000981761F0A28DAE0FBF2FB11D5D968C9103
:10054000928D9F5F9F73928F90E008958FEF9FEF42
:100550000895FC01918D828D981731F0828DE80FFE
:10056000F11D858D90E008958FEF9FEF0895FC01B8
:10057000918D228D892F90E0805C9F4F821B910985
:100580008F739927089585E192E00E94B70221E0D8
:10059000892B09F420E0822F089580E090E0892BD8
:1005A00029F00E94C30281110C9400000895FC01FF
:1005B000A48DA80FB92FB11DA35ABF4F2C91848DC4
:1005C00090E001968F739927848FA689B7892C9321
:1005D000A089B1898C91837080648C93938D848D74
:1005E000981306C00288F389E02D80818F7D808377
:1005F0000895EF92FF920F931F93CF93DF93EC0137
:1006000081E0888F9B8D8C8D98131AC0E889F989B9
:10061000808185FF15C09FB7F894EE89FF896083BC
:10062000E889F98980818370806480839FBF81E03D
:1006300090E0DF91CF911F910F91FF90EF9008957F
:10064000F62E0B8D10E00F5F1F4F0F731127E02E5A
:100650008C8D8E110CC00FB607FCFACFE889F98992
:10066000808185FFF5CFCE010E94D702F1CFEB8DBF
:10067000EC0FFD2FF11DE35AFF4FF0829FB7F89466
:100680000B8FEA89FB8980818062CFCFCF93DF9384
:10069000EC01888D8823B9F0AA89BB89E889F9899A
:1006A0008C9185FD03C0808186FD0DC00FB607FCCF
:1006B000F7CF8C9185FFF2CF808185FFEDCFCE0102
:1006C0000E94D702E9CFDF91CF910895FC010190FC
:1006D0000020E9F73197AF01481B590BBC0185E1B8
:1006E00092E00C9459028F929F92AF92BF920F9317
:1006F0001F93CF93DF93CDB7DEB7A1970FB6F894D2
:10070000DEBF0FBECDBF19A2423008F44AE08E0111
:100710000F5D1F4F842E912CB12CA12CA5019401AB
:100720000E94CF0FE62FB901CA01EA30F4F4E05D70
:10073000D801EE938D01232B242B252B79F790E004
:1007400080E0109719F0CD010E946603A1960FB6C4
:10075000F894DEBF0FBECDBFDF91CF911F910F91F7
:10076000BF90AF909F908F900895E95CE1CFCF93B9
:10077000DF930E946603EC0182E491E00E9466032D
:100780008C0F9D1FDF91CF9108954F925F926F92D2
:100790007F928F929F92AF92BF92CF92DF92EF9211
:1007A000FF920F931F93CF936B017C01742EAC01CA
:1007B0009B010E948E0E882399F085E491E0CF91F1
:1007C0001F910F91FF90EF90DF90CF90BF90AF906F
:1007D0009F908F907F906F905F904F900C946603E6
:1007E00046015701E894B7F82FEF3FEF4FE75FE777
:1007F000C501B4010E948E0E81110DC02FEF3FEF95
:100800004FE75FE7C501B4010E946D0B18161CF499
:1008100089E491E0D4CF2FEF3FEF4FE75FE4C701CA
:10082000B6010E94F30D18161CF48DE491E0C7CFB9
:100830002FEF3FEF4FE75FECC701B6010E946D0B52
:1008400087FDF3CF20E030E0A901C701B6010E9487
:100850006D0B10E000E087FF0AC06DE285E192E0D9
:100860000E94F9028C01F7FAF094F7F8F094C0E0D6
:1008700060E070E080E09FE37C1641F020E030E033
:1008800040E251E40E94520DCF5FF6CFA7019601DE
:100890000E94E60C2B013C010E94C40D4B015C013F
:1008A0004AE00E9473037C01E00EF11ECC23C1F1EB
:1008B000C501B4010E94720B9B01AC01C301B201DE
:1008C0000E94E50C4B015C016EE285E192E00E9422
:1008D000F902E80EF91EC15018F120E030E040E2C4
:1008E00051E4C501B4010E94D30B2B013C010E94CD
:1008F000C40D4B01B12CA12C4AE0C501B4010E94EA
:100900007303E80EF91EC501B4010E94720B9B012E
:10091000AC01C301B2010E94E50C4B015C01DBCFCD
:10092000C701CF911F910F91FF90EF90DF90CF9073
:10093000BF90AF909F908F907F906F905F904F90FF
:100940000895CF93DF93682F85E192E00E94F9022A
:10095000EC0182E491E00E9466038C0F9D1FDF9101
:10096000CF910895CF93DF93EC018091B2029091E3
:10097000B302009759F02091B4023091B5022C17C0
:100980003D0720F081E0DF91CF910895BE016F5FB8
:100990007F4F0E941C11009789F09093B3028093BF
:1009A000B202D093B502C093B4022091B602309146
:1009B000B702232B39F7FC011082E4CF80E0E3CFAC
:1009C00090E080E00E94B2042091B2023091B30224
:1009D000811113C02115310519F0C9010E9493102E
:1009E0001092B3021092B2021092B7021092B602A5
:1009F0001092B5021092B40208951092B7021092AC
:100A0000B60264E471E0C9010C94E2110E94E004B2
:100A1000109208021092090210920A0210920B0220
:100A2000109207021092060208951F920F920FB6BD
:100A30000F9211242F933F938F939F93AF93BF9364
:100A40008091110290911202A0911302B0911402B0
:100A50003091100223E0230F2D3758F50196A11D88
:100A6000B11D209310028093110290931202A09363
:100A70001302B093140280910C0290910D02A09188
:100A80000E02B0910F020196A11DB11D80930C02C0
:100A900090930D02A0930E02B0930F02BF91AF91FD
:100AA0009F918F913F912F910F900FBE0F901F90AC
:100AB000189526E8230F0296A11DB11DD2CF1F92D3
:100AC0000F920FB60F9211242F933F934F935F9382
:100AD0006F937F938F939F93AF93BF93EF93FF9306
:100AE00085E192E00E94D702FF91EF91BF91AF9113
:100AF0009F918F917F916F915F914F913F912F9136
:100B00000F900FBE0F901F9018951F920F920FB667
:100B10000F9211242F938F939F93EF93FF93E09164
:100B20002502F09126028081E0912B02F0912C02A7
:100B300082FD1BC0908180912E028F5F8F73209168
:100B40002F02821741F0E0912E02F0E0EB5EFD4FA4
:100B5000958F80932E02FF91EF919F918F912F910E
:100B60000F900FBE0F901F9018958081F4CF1092B8
:100B700018021092170288EE93E0A0E0B0E0809394
:100B8000190290931A02A0931B02B0931C028AE2EE
:100B900091E0909316028093150285EC90E090937B
:100BA00022028093210284EC90E0909324028093AF
:100BB000230280EC90E0909326028093250281EC42
:100BC00090E0909328028093270282EC90E090932B
:100BD0002A028093290286EC90E090932C02809365
:100BE0002B0210922E0210922F02109230021092BD
:100BF00031021092BA021092BE021092BD021092FF
:100C0000BF028CE391E09093B9028093B802E4EDC7
:100C1000F2E01082148213821582369683E0E0316E
:100C2000F807B9F78CE091E090931B0380931A03C7
:100C300088E091E090931D0380931C0384E08093EF
:100C40001E0380931F0380E191E09093190380932A
:100C500018038AE090E0909321038093200384EFAF
:100C600091E0909323038093220310922603109225
:100C7000250310921403109215031092160310927C
:100C80001703109224031092B3021092B202109232
:100C9000B5021092B4021092B7021092B60290E020
:100CA00080E00E94B2042091B2023091B30281111F
:100CB00013C02115310519F0C9010E94931010923B
:100CC000B3021092B2021092B7021092B6021092C2
:100CD000B5021092B40208951092B7021092B602B3
:100CE00064E471E0C9010C94E211CF93DF9300D06A
:100CF000CDB7DEB7789484B5826084BD84B5816059
:100D000084BD85B5826085BD85B5816085BD8091D6
:100D10006E00816080936E0010928100809181004E
:100D20008260809381008091810081608093810046
:100D3000809180008160809380008091B100846008
:100D40008093B1008091B00081608093B000809169
:100D50007A00846080937A0080917A008260809328
:100D60007A0080917A00816080937A0080917A0085
:100D7000806880937A001092C100E0912502F09182
:100D8000260282E08083E0912102F091220210820B
:100D9000E0912302F09124028FEC808310922D02C7
:100DA000E0912902F0912A0286E08083E0912702F7
:100DB000F0912802808180618083E0912702F09188
:100DC0002802808188608083E0912702F0912802C8
:100DD000808180688083E0912702F09128028081E1
:100DE0008F7D808381E591E00E94B70362E08AE015
:100DF0000E94120262E08BE00E941202412C512CF0
:100E00003201439440E0A42E40E0B42E51E05093D0
:100E100024038FB7F894409111025091120260910F
:100E20001302709114028FBF8091140390911503E7
:100E3000A0911603B0911703481B590B6A0B7B0B4B
:100E40008091200390912103B0E0A0E084179507E2
:100E5000A607B70708F012C110E080911E0318170B
:100E600060F4E0911A03F0911B03E10FF11D62E0C1
:100E700080810E9412021F5FF0CF312C80911F03EE
:100E8000381608F061C0E32CF12CE0911C03F091BE
:100E90001D03EE0DFF1D61E080810E941202E091B2
:100EA0001C03F0911D03EE0DFF1D60E080810E9488
:100EB000E401D301C201032C04C0880F991FAA1FAB
:100EC000BB1F0A94D2F74C016C01C094D094212C22
:100ED00080911E03281608F5022D10E0E0911A03F8
:100EE000F0911B03E00FF11F80810E94BB010C5F9A
:100EF0001F4F000F111FF801E854FD4F892B41F4DB
:100F00008081918188299929918380832394E0CFDE
:100F1000808191818C219D21F7CFE0911C03F0917C
:100F20001D03EE0DFF1D61E080810E94E4018091B0
:100F30001C0390911D03E80EF91E60E0F70180810B
:100F40000E94120233949ACF08EB12E07801F70165
:100F5000878D90A1892B31F4148E8FEF9FEF968FA0
:100F6000858F11A296E0E90EF11CE4EFEE16E2E0A7
:100F7000FE0669F7912C80911E03981608F053C065
:100F8000812CC92CD12CCC0CDD1CC60180549D4F6A
:100F90006C0120911F03821608F043C0F6016081A6
:100FA0007181082C02C0769567950A94E2F7929EAB
:100FB00090011124280D311DE8EBF2E080E0458D11
:100FC000568D2417350709F408C28F5F36968A308C
:100FD000B1F760FF24C0E8EBF2E090E080E0448DE0
:100FE000411118C0E0911803F0911903E20FF31FAB
:100FF000408156E0589FF001599FF00D1124E854AC
:10100000FD4F448F368F258F10A2178E61E00E940E
:10101000220105C0019636968A30910501F7839426
:10102000B8CF9394A8CF80E0F80191A19111892FB6
:101030000A5F1F4FE016F106B9F79FB7F894409189
:1010400011025091120260911302709114029FBF1D
:101050004093140350931503609316037093170382
:10106000882361F08091D902882341F08091D702D2
:101070009091D8021091D402019719F01092240394
:1010800010E08AE00E94BB01909307018093060163
:1010900020910401309105012130310531F4892B73
:1010A00021F482E691E00E9466038091060190910E
:1010B000070190930501809304018BE00E94BB011E
:1010C000909303018093020120910001309101016E
:1010D0002130310531F4892B21F484E691E00E941E
:1010E0006603809102019091030190930101809326
:1010F0000001112309F440C086E691E00E946603D6
:10110000812F0E94A10480ED810F8A3008F040C039
:1011100019831A820091B6021091B7020F5F1F4F18
:10112000C8010E94B204882399F02091B202309144
:10113000B3028091B6029091B702BE016F5F7F4FFC
:10114000820F931F0E94E2111093B7020093B60220
:1011500087E791E00E9466034091B6025091B70282
:101160006091B2027091B30285E192E00E9459024F
:1011700082E491E00E946603A114B10409F446CE12
:101180000E94C302882309F441CE0E9400003ECE93
:10119000812F8D7F8D3231F086ED810F823010F0FE
:1011A0001634A1F58091B6029091B702892BB1F067
:1011B0008091B2029091B302FC012081222371F050
:1011C0000097E9F00E94F809609308027093090201
:1011D00080930A0290930B020E94E004109307028E
:1011E000109206028FE791E00E9466038091070249
:1011F000863449F48AE891E00E94B703BDCF60E0ED
:1012000070E0CB01E1CF0E94A104B6CF173441F4C6
:10121000F1E0F09306020E94E0048CE891E0ECCF4C
:101220001D3309F0D2C080910602882309F453C00F
:101230000E94EC00882381F08091B2029091B30269
:101240000097F1F10E94F809609308027093090277
:1012500080930A0290930B02C0900802D09009027A
:10126000E0900A02F0900B0220E030E0A901C701F3
:10127000B6010E94F30D87FD27C0C701B6010E9489
:101280004E0E6B017C0184EA91E00E94660360913E
:1012900008027091090280910A0290910B0242E0CB
:1012A0000E94C50388EA91E00E94660342E0C701FC
:1012B000B6010E94C50382E491E00E94660308C063
:1012C00060E070E0CB01C0CF8CEA91E00E94B703F0
:1012D0000E94060551CF80910702882379F10E9470
:1012E000EC00882359F18091B2029091B302C12C95
:1012F000D12C7601009721F00E94F8096B017C0146
:10130000809107028D3271F144F48A32C1F18B323F
:10131000C1F0C12CD12C760122C08F32E9F1863484
:10132000C1F7609108027091090280910A029091C0
:101330000B02A70196010E94F80D0FC081EC91E00D
:10134000C5CF209108023091090240910A025091C4
:101350000B02C701B6010E94E60C6B017C018CEE0A
:1013600091E0A2CFA7019601609108027091090255
:1013700080910A0290910B020E94E50CEECF209121
:1013800008023091090240910A0250910B02C701F4
:10139000B6010E94D30BE1CF20E030E0A901C701E4
:1013A000B6010E946D0B882369F0A7019601609138
:1013B00008027091090280910A0290910B020E942A
:1013C000520DCBCF8DED91E081CF153409F0D4CE05
:1013D0000E94060584EF91E00FCF617018CE8091D6
:1013E000B2029091B302009711F00C9493100895FB
:1013F000662777270C94FC09B0E0A0E0E2E0FAE071
:101400000C94A50C5C017B016115710519F0DB01E1
:101410008D939C9385010F5F1F4FF501D0818D2F18
:1014200090E00E944C0B6C01892BB9F5DD32B9F5C7
:101430000F5F1F4FD5011196DC91C1E05801F1E01B
:10144000AF1AB10843E050E062EF70E0C5010E94BE
:10145000550B892B69F5680182E0C80ED11C45E067
:1014600050E06DEE70E0C6010E94550B892B21F40F
:10147000680197E0C90ED11CE114F10419F0D701FD
:10148000CD92DC9260E070E080E89FEFC111FFC078
:1014900060E070E080E89FE7FAC05801BBCFDB3224
:1014A00029F485010E5F1F4FF501D181C0E0C6CF41
:1014B00043E050E06AEE70E0C5010E94550B892BB5
:1014C000E9F0F80110E000E020E030E0A9015F0160
:1014D000B0ED8B2E8D0E89E08815C8F19C2E689496
:1014E00091F88C2F8870C2FF16C0811102C00F5F67
:1014F0001F4F3196D501DC91C92DE9CFE114F104DC
:1015000029F00E5F1F4FF7011183008360E070E048
:1015100080EC9FE7BCC0882311F001501109A5E0C1
:10152000B0E00E94940C9B01AC01220F331F441FBA
:10153000551F280D311D411D511D283999E93907C5
:10154000490799E15907A8F2C6609C2ED2CFAEEFA9
:101550008A1206C0C3FD3CC09C2E689493F8C9CF84
:10156000DF7DD534A9F580818D3239F4C061DF018A
:101570001296818162E070E006C0DF018B32C1F318
:10158000119661E070E080535D01A61AB70A8A30B7
:10159000F8F4E0E8CE16ECE0DE065CF4B601660F87
:1015A000771F660F771FC60ED71ECC0CDD1CC80E2A
:1015B000D11C5D01FFEFAF1ABF0A8C9180538A30B6
:1015C000A8F1C4FF03C0D194C194D1080C0D1D1D16
:1015D000C1FF09C0E114F10431F081E0A81AB1089B
:1015E000D701AD92BC92CA01B9010E94720BC370BF
:1015F000C33009F490584B015C0120E030E0A901B0
:101600000E946D0B882309F440C0C1E2D1E017FFAE
:1016100005C0119501951109C9E0D1E06E01B8E14D
:10162000CB1AD10880E2E82EF12C0FC0D501B1CF42
:10163000FE0125913591459154910E191F09C5015F
:10164000B4010E94D30B4B015C01D501C4010E15FE
:101650001F0574F72497F594E794CC16DD06A9F7D7
:101660008A2F880F8B2F881F8F3F49F020E030E0B2
:10167000A901C501B4010E946D0B811106C082E26F
:1016800090E09093280380932703C501B401CDB760
:10169000DEB7ECE00C94C10C91110C94400C80323C
:1016A00019F089508550C8F70895FB01DC014150BD
:1016B000504088F08D9181341CF08B350CF4805EA5
:1016C000659161341CF06B350CF4605E861B611112
:1016D00071F3990B0895881BFCCF0E94AF0B08F49F
:1016E00081E00895E89409C097FB3EF490958095B9
:1016F000709561957F4F8F4F9F4F9923A9F0F92FD8
:1017000096E9BB279395F695879577956795B79555
:10171000F111F8CFFAF4BB0F11F460FF1BC06F5F3B
:101720007F4F8F4F9F4F16C0882311F096E911C04D
:10173000772321F09EE8872F762F05C0662371F06E
:1017400096E8862F70E060E02AF09A95660F771F82
:10175000881FDAF7880F9695879597F90895990F5E
:101760000008550FAA0BE0E8FEEF16161706E8076B
:10177000F907C0F012161306E407F50798F0621B8C
:10178000730B840B950B39F40A2661F0232B242B61
:10179000252B21F408950A2609F4A140A6958FEF80
:1017A000811D811D08950E94E60B0C945A0C0E9425
:1017B0004C0C38F00E94530C20F0952311F00C943F
:1017C000430C0C94490C11240C948E0C0E946B0C4D
:1017D00070F3959FC1F3950F50E0551F629FF00184
:1017E000729FBB27F00DB11D639FAA27F00DB11D9D
:1017F000AA1F649F6627B00DA11D661F829F222726
:10180000B00DA11D621F739FB00DA11D621F839FAC
:10181000A00D611D221F749F3327A00D611D231F82
:10182000849F600D211D822F762F6A2F11249F57D0
:1018300050409AF0F1F088234AF0EE0FFF1FBB1FD3
:10184000661F771F881F91505040A9F79E3F510592
:1018500080F00C94430C0C948E0C5F3FE4F3983EA4
:10186000D4F3869577956795B795F795E7959F5F3C
:10187000C1F7FE2B880F911D9695879597F90895CE
:1018800099278827089597F99F6780E870E060E0BE
:1018900008959FEF80EC089500240A941616170609
:1018A00018060906089500240A9412161306140651
:1018B00005060895092E0394000C11F4882352F0B4
:1018C000BB0F40F4BF2B11F460FF04C06F5F7F4F6C
:1018D0008F4F9F4F089557FD9058440F551F59F053
:1018E0005F3F71F04795880F97FB991F61F09F3F0D
:1018F00079F087950895121613061406551FF2CF36
:101900004695F1DF08C0161617061806991FF1CF85
:1019100086957105610508940895E894BB276627AC
:101920007727CB0197F908950E94D60CA59F900DBB
:10193000B49F900DA49F800D911D112408952F92A6
:101940003F924F925F926F927F928F929F92AF924F
:10195000BF92CF92DF92EF92FF920F931F93CF939C
:10196000DF93CDB7DEB7CA1BDB0B0FB6F894DEBF33
:101970000FBECDBF09942A88398848885F846E8459
:101980007D848C849B84AA84B984C884DF80EE80A3
:10199000FD800C811B81AA81B981CE0FD11D0FB6AC
:1019A000F894DEBF0FBECDBFED010895A29FB00138
:1019B000B39FC001A39F700D811D1124911DB29F83
:1019C000700D811D1124911D08955058BB27AA2721
:1019D0000E94FD0C0C945A0C0E944C0C38F00E9492
:1019E000530C20F039F49F3F19F426F40C94490C61
:1019F0000EF4E095E7FB0C94430CE92F0E946B0C6E
:101A000058F3BA17620773078407950720F079F433
:101A1000A6F50C948D0C0EF4E0950B2EBA2FA02D8C
:101A20000B01B90190010C01CA01A0011124FF278B
:101A3000591B99F0593F50F4503E68F11A16F04086
:101A4000A22F232F342F4427585FF3CF4695379585
:101A50002795A795F0405395C9F77EF41F16BA0B4A
:101A6000620B730B840BBAF09150A1F0FF0FBB1FF8
:101A7000661F771F881FC2F70EC0BA0F621F731F41
:101A8000841F48F4879577956795B795F7959E3F9E
:101A900008F0B0CF9395880F08F09927EE0F97952F
:101AA000879508950E94660D0C945A0C0E94530C61
:101AB00058F00E944C0C40F029F45F3F29F00C9440
:101AC000430C51110C948E0C0C94490C0E946B0C1D
:101AD00068F39923B1F3552391F3951B550BBB275D
:101AE000AA2762177307840738F09F5F5F4F220FA2
:101AF000331F441FAA1FA9F335D00E2E3AF0E0E899
:101B000032D091505040E695001CCAF72BD0FE2FE2
:101B100029D0660F771F881FBB1F26173707480776
:101B2000AB07B0E809F0BB0B802DBF01FF2793582E
:101B30005F4F3AF09E3F510578F00C94430C0C94A3
:101B40008E0C5F3FE4F3983ED4F3869577956795C6
:101B5000B795F7959F5FC9F7880F911D9695879563
:101B600097F90895E1E0660F771F881FBB1F621782
:101B700073078407BA0720F0621B730B840BBA0B40
:101B8000EE1F88F7E09508950E94730C88F09F5728
:101B900098F0B92F9927B751B0F0E1F0660F771F91
:101BA000881F991F1AF0BA95C9F714C0B13091F087
:101BB0000E948D0CB1E008950C948D0C672F782F46
:101BC0008827B85F39F0B93FCCF38695779567954C
:101BD000B395D9F73EF490958095709561957F4FB8
:101BE0008F4F9F4F08950E94AF0B08F48FEF089519
:101BF000FA01EE0FFF1F309621053105A1F16115A5
:101C0000710561F48038BFE39B0749F1689490380F
:101C1000810561F08038BFEF9B0741F099234AF5B9
:101C2000FF3FE1053105210519F1E8940894E79596
:101C3000D901AA2329F4AB2FBE2FF85FD0F310C02F
:101C4000FF5F70F4A695E0F7F73950F019F0FF3A0E
:101C500038F49F779F930DD00F9007FC905808950C
:101C600046F00C94490C60E070E080E89FE3089532
:101C70004FE79F775F934F933F932F930E94530FAC
:101C80002F913F914F915F910E94D30B0C949B0E2B
:101C900019F416F40C94490C0C94CD0E0E94730C9C
:101CA000B8F39923C9F3B6F39F57550B87FF0E94EA
:101CB000DB0E0024A0E640EA9001805856959795E7
:101CC00028F4805C660F771F881F20F026173707DF
:101CD000480730F4621B730B840B202931294A2BEF
:101CE000A69517940794202531254A2758F7660FA3
:101CF000771F881F20F026173707480730F4620B3C
:101D0000730B840B200D311D411DA09581F7B90186
:101D1000842F9158880F9695879508950E94AF0B50
:101D2000880B990B089529F416F00C94430C0C942D
:101D30008D0C0C94490C0E94730CA8F39638A0F7F4
:101D400007F80F92E8942BE33AEA48EB5FE70E942A
:101D5000E90B0F920F920F924DB75EB70F920E9450
:101D60009B0FE8E6F0E00E94E20E4F915F91EF9149
:101D7000FF91E595EE1FFF1F49F0FE57E0684427ED
:101D8000EE0F441FFA95E1F74195550B0E94150F90
:101D90000F9007FE0C94090F08959F3F31F091506A
:101DA00020F4879577956795B795880F911D96953F
:101DB000879597F9089591505040660F771F881FB7
:101DC000D2F70895DF93CF931F930F93FF92EF9273
:101DD000DF927B018C01689406C0DA2EEF010E942D
:101DE000E60BFE01E894A591259135914591559119
:101DF000A6F3EF010E94FD0CFE019701A801DA9401
:101E000069F7DF90EF90FF900F911F91CF91DF91D5
:101E100008959B01AC0160E070E080E89FE30C94C2
:101E2000520D0C94430C0C94CD0E0E94730CD8F3FD
:101E30009923C9F3940F511DA3F39150504094F08E
:101E400059F0882332F0660F771F881F9150504059
:101E5000C1F79E3F51052CF7880F911D96958795E8
:101E600097F908955F3FACF0983E9CF0BB278695AC
:101E700077956795B79508F4B1609395C1F7BB0F57
:101E800058F711F460FFE8CF6F5F7F4F8F4F9F4F80
:101E9000E3CF0C948E0C16F00C94CD0E0C94490CE0
:101EA00068940C94430C0E94730CA8F39923C1F31B
:101EB000AEF3DF93CF931F930F93FF92C92FDD27CC
:101EC00088232AF02197660F771F881FDAF720E012
:101ED00030E040E85FEB9FE3883920F0803E38F047
:101EE00021968F770E94E60CE0E9F0E004C00E94A2
:101EF000E60CEDEBF0E00E94E20E8B01BE01EC017E
:101F0000FB2E6F5771097595771F880B990B0E94EF
:101F1000740B28E132E741E35FE30E94E60BAF2D4B
:101F20009801AE01FF900F911F91CF91DF910E9418
:101F3000FD0C0C945A0CFA01DC01AA0FBB1F9B018B
:101F4000AC01BF5728F4222733274427507820C0FC
:101F5000B75190F4AB2F0024469537952795011C77
:101F6000A395D2F3002071F0220F331F441FB395C5
:101F7000DAF30ED00C94E50C61307105A0E88A0705
:101F8000B94630F49B01AC01662777278827907803
:101F9000309621F020833183428353830895A1E258
:101FA0001A2EAA1BBB1BFD010DC0AA1FBB1FEE1FD3
:101FB000FF1FA217B307E407F50720F0A21BB30B1E
:101FC000E40BF50B661F771F881F991F1A9469F79A
:101FD00060957095809590959B01AC01BD01CF01F6
:101FE0000895EE0FFF1F0590F491E02D09940F93D3
:101FF0001F93CF93DF938230910510F482E090E03D
:10200000E0912B03F0912C0330E020E0B0E0A0E061
:10201000309799F42115310509F44AC0281B390B72
:1020200024303105D8F58A819B816115710589F1CC
:10203000FB0193838283FE0111C0408151810281A3
:10204000138148175907E0F04817590799F410977A
:1020500061F012960C93129713961C933296CF014F
:10206000DF91CF911F910F91089500932B0310934F
:102070002C03F4CF2115310551F04217530738F0E6
:10208000A901DB019A01BD01DF01F801C1CFEF0118
:10209000F9CF90932C0380932B03CDCFFE01E20F59
:1020A000F31F819391932250310939832883D7CF2D
:1020B0002091290330912A03232B41F420912201FE
:1020C0003091230130932A0320932903209120018A
:1020D000309121012115310541F42DB73EB74091D2
:1020E000240150912501241B350BE0912903F09127
:1020F0002A03E217F307A0F42E1B3F0B281739071A
:1021000078F0AC014E5F5F4F2417350748F04E0F53
:102110005F1F50932A0340932903819391939FCF8C
:10212000F0E0E0E09CCFCF93DF930097E9F0FC0173
:10213000329713821282A0912B03B0912C03ED01F0
:1021400030E020E01097A1F420813181820F931FAD
:102150002091290330912A032817390709F061C01B
:10216000F0932A03E0932903DF91CF910895EA01C8
:10217000CE17DF07E8F54A815B819E0141155105C5
:10218000B1F7E901FB83EA8349915991C40FD51F47
:10219000EC17FD0761F4808191810296840F951FF1
:1021A000E90199838883828193819B838A83F0E00C
:1021B000E0E012968D919C9113970097B9F52D91BF
:1021C0003C911197CD010296820F931F2091290314
:1021D00030912A032817390739F6309751F51092B4
:1021E0002C0310922B03B0932A03A0932903BCCF96
:1021F000D383C28340815181840F951FC817D907AB
:1022000061F44E5F5F4F88819981480F591F518358
:1022100040838A819B81938382832115310509F054
:10222000B0CFF0932C03E0932B039ECFFD01DC0194
:10223000C0CF13821282D7CFB0E0A0E0E2E2F1E19A
:102240000C94A10C8C01009751F4CB010E94F70F64
:102250008C01C801CDB7DEB7E0E10C94BD0CFC01E8
:10226000E60FF71F9C0122503109E217F30708F42B
:102270009DC0D901CD91DC911197C617D70798F071
:10228000C530D10530F3CE0104978617970708F3C0
:10229000C61BD70B2297C193D1936D937C93CF012B
:1022A0000E949310D6CF5B01AC1ABD0A4C018C0E74
:1022B0009D1EA0912B03B0912C03512C412CF12C8D
:1022C000E12C109731F58091290390912A0388150C
:1022D000990509F05CC04616570608F058C0809171
:1022E000200190912101009741F48DB79EB7409154
:1022F000240150912501841B950BE817F90708F07C
:1023000055C0F0932A03E0932903F9017183608398
:10231000A0CF8D919C91119712966C901297139665
:102320007C901397A815B90559F56C0142E0C40ECD
:10233000D11CCA14DB0420F1AC014A195B09DA0193
:102340001296159780F06282738251834083D9017F
:102350006D937C93E114F10471F0D7011396FC9313
:10236000EE93129776CF22968C0F9D1FF9019183E1
:102370008083F301EFCFF0932C03E0932B0369CF1D
:102380004816590608F42C017D01D3019ACFCB01E0
:102390000E94F70F7C01009749F0AE01B8010E943E
:1023A000D911C8010E949310870153CF10E000E0BB
:1023B00050CFFB01DC0102C001900D924150504012
:1023C000D8F70895FB01DC0101900D920020E1F7A0
:1023D000089510E0C1ECD0E004C0FE010E94F10FAE
:0C23E0002196C23CD107C9F7F894FFCF4A
:1023EC0001000100010001000607080905040302B1
:1023FC00313233343536373839302B2D3D4546475D
:10240C0000002D03800000000000F9025902860232
:10241C004603B7029502A902000000004E025202C8
:10242C0056020D0A006E616E00696E66006F76666C
:10243C00004B616C6B756C61746F722053696170C9
:10244C00210028002900546F6D626F6C2064697440
:10245C00656B616E3A2000496E7075743A20004FBE
:10246C0070657261746F723A20005E004D6F646526
:10247C0020416B6172204B75616472617420416BF9
:10248C0074696600E2889A00203D20004572726FE4
:10249C00723A20416B6172206E65676174696621C6
:1024AC000042656C756D2061646120696E70757495
:1024BC002079616E672063756B75702100457272AF
:1024CC006F723A204261676920302100486173695C
:1024DC006C3A20005265736574204B616C6B756CA3
:0624EC0061746F72000034
:00000001FF
